:020000040000fa
:080000000002040000000000f2
:020000040000fa
:0400080004030000ed
:020000040000fa
:04000c0004030000e9
:020000040000fa
:0400100004030000e5
:020000040000fa
:0400140004030000e1
:020000040000fa
:0400180004030000dd
:020000040000fa
:04001c0004030000d9
:020000040000fa
:0400200004030000d5
:020000040000fa
:0400240004030000d1
:020000040000fa
:0400280004030000cd
:020000040000fa
:04002c0004030000c9
:020000040000fa
:0400300004030000c5
:020000040000fa
:0400340004030000c1
:020000040000fa
:0400380004030000bd
:020000040000fa
:04003c0004030000b9
:020000040000fa
:0400400004030000b5
:020000040000fa
:0400440004030000b1
:020000040000fa
:0400480004030000ad
:020000040000fa
:04004c0004030000a9
:020000040000fa
:0400500004030000a5
:020000040000fa
:0400540004030000a1
:020000040000fa
:04005800040300009d
:020000040000fa
:04005c000403000099
:020000040000fa
:040060000403000095
:020000040000fa
:040064000403000091
:020000040000fa
:04006800040300008d
:020000040000fa
:04006c000403000089
:020000040000fa
:040070000403000085
:020000040000fa
:040074000403000081
:020000040000fa
:04007800040300007d
:020000040000fa
:04007c000403000079
:020000040000fa
:040080000403000075
:020000040000fa
:040084000403000071
:020000040000fa
:04008800040300006d
:020000040000fa
:04008c000403000069
:020000040000fa
:040090000403000065
:020000040000fa
:040094000403000061
:020000040000fa
:04009800040300005d
:020000040000fa
:04009c000403000059
:020000040000fa
:0400a0000403000055
:020000040000fa
:0400a4000403000051
:020000040000fa
:0400a800040300004d
:020000040000fa
:0400ac000403000049
:020000040000fa
:0400b0000403000045
:020000040000fa
:0400b4000403000041
:020000040000fa
:0400b800040300003d
:020000040000fa
:0400bc000403000039
:020000040000fa
:0400c0000403000035
:020000040000fa
:0400c4000403000031
:020000040000fa
:0400c800040300002d
:020000040000fa
:0400cc000403000029
:020000040000fa
:0400d0000403000025
:020000040000fa
:0400d4000403000021
:020000040000fa
:0400d800040300001d
:020000040000fa
:0400dc000403000019
:020000040000fa
:0400e0000403000015
:020000040000fa
:0400e4000403000011
:020000040000fa
:0400e800040300000d
:020000040000fa
:0400ec000403000009
:020000040000fa
:0400f0000403000005
:020000040000fa
:0400f4000403000001
:020000040000fa
:0400f80004030000fd
:020000040000fa
:0400fc0004030000f9
:020000040000fa
:0401000004030000f4
:020000040000fa
:0401040004030000f0
:020000040000fa
:0401080004030000ec
:020000040000fa
:04010c0004030000e8
:020000040000fa
:0401100004030000e4
:020000040000fa
:0401140004030000e0
:020000040000fa
:0401180004030000dc
:020000040000fa
:04011c0004030000d8
:020000040000fa
:0401200004030000d4
:020000040000fa
:0401240004030000d0
:020000040000fa
:0401280004030000cc
:020000040000fa
:04012c0004030000c8
:020000040000fa
:0401300004030000c4
:020000040000fa
:0401340004030000c0
:020000040000fa
:0401380004030000bc
:020000040000fa
:04013c0004030000b8
:020000040000fa
:0401400004030000b4
:020000040000fa
:0401440004030000b0
:020000040000fa
:0401480004030000ac
:020000040000fa
:04014c0004030000a8
:020000040000fa
:0401500004030000a4
:020000040000fa
:0401540004030000a0
:020000040000fa
:04015800040300009c
:020000040000fa
:04015c000403000098
:020000040000fa
:040160000403000094
:020000040000fa
:040164000403000090
:020000040000fa
:04016800040300008c
:020000040000fa
:04016c000403000088
:020000040000fa
:040170000403000084
:020000040000fa
:040174000403000080
:020000040000fa
:04017800040300007c
:020000040000fa
:04017c000403000078
:020000040000fa
:040180000403000074
:020000040000fa
:040184000403000070
:020000040000fa
:04018800040300006c
:020000040000fa
:04018c000403000068
:020000040000fa
:040190000403000064
:020000040000fa
:040194000403000060
:020000040000fa
:04019800040300005c
:020000040000fa
:04019c000403000058
:020000040000fa
:0401a0000403000054
:020000040000fa
:0401a4000403000050
:020000040000fa
:0401a800040300004c
:020000040000fa
:0401ac000403000048
:020000040000fa
:0401b0000403000044
:020000040000fa
:0401b4000403000040
:020000040000fa
:0401b800040300003c
:020000040000fa
:0401bc000403000038
:020000040000fa
:0401c0000403000034
:020000040000fa
:0401c4000403000030
:020000040000fa
:0401c800040300002c
:020000040000fa
:0401cc000403000028
:020000040000fa
:0401d0000403000024
:020000040000fa
:0401d4000403000020
:020000040000fa
:0401d800040300001c
:020000040000fa
:0401dc000403000018
:020000040000fa
:0401e0000403000014
:020000040000fa
:0401e4000403000010
:020000040000fa
:0401e800040300000c
:020000040000fa
:0401ec000403000008
:020000040000fa
:0401f0000403000004
:020000040000fa
:0401f4000403000000
:020000040000fa
:0401f80004030000fc
:020000040000fa
:0401fc0004030000f8
:020000040000fa
:0402080004030000eb
:020000040000fa
:04020c0004030000e7
:020000040000fa
:0402100004030000e3
:020000040000fa
:0402140004030000df
:020000040000fa
:0402180004030000db
:020000040000fa
:04021c0004030000d7
:020000040000fa
:0402200004030000d3
:020000040000fa
:0402240004030000cf
:020000040000fa
:0402280004030000cb
:020000040000fa
:04022c0004030000c7
:020000040000fa
:0402300004030000c3
:020000040000fa
:0402340004030000bf
:020000040000fa
:0402380004030000bb
:020000040000fa
:04023c0004030000b7
:020000040000fa
:0402400004030000b3
:020000040000fa
:0402440004030000af
:020000040000fa
:0402480004030000ab
:020000040000fa
:04024c0004030000a7
:020000040000fa
:0402500004030000a3
:020000040000fa
:04025400040300009f
:020000040000fa
:04025800040300009b
:020000040000fa
:04025c000403000097
:020000040000fa
:040260000403000093
:020000040000fa
:04026400040300008f
:020000040000fa
:04026800040300008b
:020000040000fa
:04026c000403000087
:020000040000fa
:040270000403000083
:020000040000fa
:04027400040300007f
:020000040000fa
:04027800040300007b
:020000040000fa
:04027c000403000077
:020000040000fa
:040280000403000073
:020000040000fa
:04028400040300006f
:020000040000fa
:04028800040300006b
:020000040000fa
:04028c000403000067
:020000040000fa
:040290000403000063
:020000040000fa
:04029400040300005f
:020000040000fa
:04029800040300005b
:020000040000fa
:04029c000403000057
:020000040000fa
:0402a0000403000053
:020000040000fa
:0402a400040300004f
:020000040000fa
:0402a800040300004b
:020000040000fa
:0402ac000403000047
:020000040000fa
:0402b0000403000043
:020000040000fa
:0402b400040300003f
:020000040000fa
:0402b800040300003b
:020000040000fa
:0402bc000403000037
:020000040000fa
:0402c0000403000033
:020000040000fa
:0402c400040300002f
:020000040000fa
:0402c800040300002b
:020000040000fa
:0402cc000403000027
:020000040000fa
:0402d0000403000023
:020000040000fa
:0402d400040300001f
:020000040000fa
:0402d800040300001b
:020000040000fa
:0402dc000403000017
:020000040000fa
:0402e0000403000013
:020000040000fa
:0402e400040300000f
:020000040000fa
:0402e800040300000b
:020000040000fa
:0402ec000403000007
:020000040000fa
:0402f0000403000003
:020000040000fa
:0402f40004030000ff
:020000040000fa
:0402f80004030000fb
:020000040000fa
:0402fc0004030000f7
:020000040000fa
:0403000004030000f2
:020000040000fa
:0403040004030000ee
:020000040000fa
:0403080004030000ea
:020000040000fa
:04030c0004030000e6
:020000040000fa
:0403100004030000e2
:020000040000fa
:0403140004030000de
:020000040000fa
:0403180004030000da
:020000040000fa
:04031c0004030000d6
:020000040000fa
:0403200004030000d2
:020000040000fa
:0403240004030000ce
:020000040000fa
:0403280004030000ca
:020000040000fa
:04032c0004030000c6
:020000040000fa
:0403300004030000c2
:020000040000fa
:0403340004030000be
:020000040000fa
:0403380004030000ba
:020000040000fa
:04033c0004030000b6
:020000040000fa
:0403400004030000b2
:020000040000fa
:0403440004030000ae
:020000040000fa
:0403480004030000aa
:020000040000fa
:04034c0004030000a6
:020000040000fa
:0403500004030000a2
:020000040000fa
:04035400040300009e
:020000040000fa
:04035800040300009a
:020000040000fa
:04035c000403000096
:020000040000fa
:040360000403000092
:020000040000fa
:04036400040300008e
:020000040000fa
:04036800040300008a
:020000040000fa
:04036c000403000086
:020000040000fa
:040370000403000082
:020000040000fa
:04037400040300007e
:020000040000fa
:04037800040300007a
:020000040000fa
:04037c000403000076
:020000040000fa
:040380000403000072
:020000040000fa
:04038400040300006e
:020000040000fa
:04038800040300006a
:020000040000fa
:04038c000403000066
:020000040000fa
:040390000403000062
:020000040000fa
:04039400040300005e
:020000040000fa
:04039800040300005a
:020000040000fa
:04039c000403000056
:020000040000fa
:0403a0000403000052
:020000040000fa
:0403a400040300004e
:020000040000fa
:0403a800040300004a
:020000040000fa
:0403ac000403000046
:020000040000fa
:0403b0000403000042
:020000040000fa
:0403b400040300003e
:020000040000fa
:0403b800040300003a
:020000040000fa
:0403bc000403000036
:020000040000fa
:0403c0000403000032
:020000040000fa
:0403c400040300002e
:020000040000fa
:0403c800040300002a
:020000040000fa
:0403cc000403000026
:020000040000fa
:0403d0000403000022
:020000040000fa
:0403d400040300001e
:020000040000fa
:0403d800040300001a
:020000040000fa
:0403dc000403000016
:020000040000fa
:0403e0000403000012
:020000040000fa
:0403e400040300000e
:020000040000fa
:0403e800040300000a
:020000040000fa
:0403ec000403000006
:020000040000fa
:0403f0000403000002
:020000040000fa
:0403f40004030000fe
:020000040000fa
:0403f80004030000fa
:020000040000fa
:0403fc0004030000f6
:020000040000fa
:100400004f8020000e7f22000e01880000000000b7
:10041000000020000000e000020032000001200087
:100420002002880014000700790007000000e000a7
:1004300003003a0060952000010020000200370010
:100440000000200001002000810f70000100320038
:1004500014000700000020000000e000020032004d
:100460000000020000000000d007020000000000b1
:100470000040da000000fe004440a90020002000f7
:100480000000e0000300320010002000900188000e
:100490004440a800000006008a1f78008b1f7800e7
:1004a00000000600a1028800800478000000eb0034
:1004b0001f003700e284440054a0b4009905ba003c
:1004c000e284440054a0b4009906ba00e2844400d7
:1004d00054a0b4000006eb00476fde00fd07b20039
:1004e000ae018800636ce10003003a00eaff0700f8
:1004f0000000eb000e003700606ce10008003a00dd
:10050000004deb000a05e800020039003420ec0041
:100510000af0a0008b05e900f9ff3e000400370057
:100520006168e100010032000086eb000b0007006b
:1005300019c7ba001905ba000e04e00003003a001a
:100540000a00e000dbff3a0000000600fe07b200f0
:10055000ae0288008a047800f5ff37000cd0a300b3
:10056000e20f4d001c00390089027800354dba00b9
:100570000a05e800020039003420ec000af0a0006f
:100580008b05e9000f003200254dba000a05e8008e
:10059000020039003420ec000af0a0008b05e900cd
:1005a000080032000c00e0000600320015cdba0051
:1005b0000a05e800020039003420ec000af0a0002f
:1005c0008b05e9008984e80054a0b4000b00e0002a
:1005d000e2ff3a00000006009902ba00055d7800cb
:1005e0008b05e900f7ff3200c82ade00055d7800c0
:1005f0008b05e900f3ff32000c00e000f1ff320050
:1006000019ddba00eeff37000040da000000fe00fe
:100610000000050003f0a200889fbe008a9fbe0074
:100620008c1f7800fa000700010133006450e100dc
:100630004f0032006420e1005200320003826c005f
:1006400007003b000905d0000306d000820f5400cc
:100650000c065d00020039000200320089017800ba
:10066000030678008582550004003d000003fd006c
:100670008103fd008502ea008b854200840f720031
:1006800002003b0060001000e08018006011b8001c
:100690000005eb007a28e1000a0039000600780026
:1006a000c75ddd00f707b200878075002d003700b9
:1006b000828171000a017800610560008180d100ab
:1006c0000080d3008502e900f9ff3b0006044000ea
:1006d0008784480002003b0060041400e0841c0092
:1006e0000988a300070032008a81710082817100ad
:1006f000610164008904d1000884d3008b05e800ff
:10070000170037000978a30013003a000b00e0003f
:10071000130034008b05e9000804440089844c0070
:100720000a4474000978a3000d003a000b00e000b1
:10073000070034008b05e9000804440089844c005c
:1007400001003a000b0020000978a300f7ff3200f7
:100750000001eb0002003700828171000a0178007d
:10076000700007000cf0a70001f0a000b9003700ee
:100770006420e10002003a00838f6c00b90033006e
:100780000801be000200be00b2003700889fbe0014
:100790008a9fbe008c1f78009d000700a4003300d4
:1007a00003866c006450e1002e0032006420e100fa
:1007b000330032006150e1002f0032006120e1007f
:1007c0003100320085855500eb07b000090020009c
:1007d00008042000050037000804440089844c0008
:1007e0000a0031000603430087834b0000015300d9
:1007f00081815b00f8ff33000203be000800a00007
:100800000804440089844c00f6ff3900c639dd0035
:100810008301730001003200130020008904d1001d
:100820000884d3000998a300050032000800a7003f
:100830000300a0008904d1000884d3008b05e800e0
:100840008904d1000884d3000001eb000281d200aa
:100850003400070001f0a1000cf0a70001f0a00097
:100860007c0037006420e1007e0032000801be00f9
:100870000200be00f7ff37006120e100790032007e
:100880006000b800f3ff37000000200001f82700e7
:10089000f0ff37000001be00480007000470a70009
:1008a00003f0a1006509b100160032000d0035000b
:1008b0006828e10006003500f0ff2f00f1ff270057
:1008c0000300e00013003b000100280000000500c9
:1008d00000004000818048008502e900fcff3a00ea
:1008e00008003700f88f420002003c008000eb0057
:1008f000000005008100d1000080d3008502e800df
:10090000fcff3a000300e00002003b006000100022
:10091000e0801800000006004f89de0082017800a8
:100920008900370081002000618055000b003d00e8
:100930000b00200061fe2f000100e1001d003400cb
:1009400082817100610164008904d1000884d300b0
:100950000000e800faff3a00710020006100640026
:1009600003007000020060000900320061044400ce
:10097000e0844c000988a500050032008b05e800e2
:100980006808e10002003a008904d1000884d3001d
:10099000f20f20000258e10005003d00c75ddd00b8
:1009a000f907b20089807500080078000000060091
:1009b0000bf827008b00780000000500c70ade0056
:1009c000f107b200f50fb20008003200e1cf42009b
:1009d000020032000170a00024000500810f7000a9
:1009e000010032000408050044000500810f70007a
:1009f00002003a00140005008502e90000004000f2
:100a000081c04800fcff3b000170a00024000500ed
:100a10000004be00e9ff07000003be000405be009d
:100a20000200be00e5ff0700844f750000000600cd
:100a30000200be006450e100050036006420e100c1
:100a4000020036000968a30001003a000800be0059
:100a50000160a0004f0678004f05be004f04be00a5
:100a600000000600f0ff2f00f1ff2700f9ff37001c
:100a7000889fbe008a9fbe008c1f7800e4ff07009d
:100a8000ebff330003866c006450e1002400320069
:100a90006420e100270032006150e10022003200b2
:100aa0006120e100210032008b854200eb07b1009c
:100ab0000134b800003ab8000804420089844a00b2
:100ac000013ab8000030b8008880400009014a00af
:100ad000040033000000400081804800020149000a
:100ae0008b05e900c909dd008301700001003200b7
:100af00013002000c814de004814dd004709de00a2
:100b00001200b200c808de000884700085ff0700ec
:100b100001f0a1000cf0a70001f0a000cdff37000c
:100b20006120e100cfff32000801be000200be00dc
:100b3000f7ff37006150e100fcff3a00c9ff3700c2
:100b40000001eb003f003700881f780003047800a5
:100b50000300e00007003d0060001000e080180086
:100b600060011900e081190002003b0001f02d0036
:100b7000030037000400070008f0a70001f0a00000
:100b80004f04780000000600889fbe008a9fbe00c8
:100b9000008270000402710004827100260032009d
:100ba0000004be000200be006011b8006b09200006
:100bb000950220000182cf000a0039000541b100f2
:100bc0000082cf00070039000541b1000982cf0043
:100bd000040039000541b1000882cf00010039004e
:100be0000541b10005425200120032000a003b00ec
:100bf00082817100610164008100d1000080d30016
:100c00008984d3000884d3008b05e8000442e800ff
:100c1000f7ff3a00070037000804440089844c00bd
:100c200000004800818048008b05e9000442e9008b
:100c3000f9ff3a003bff07004f05be004f04be001e
:100c400000000600889fbe008a9fbe008c9fbe00e9
:100c5000820578000004be0058ff07000800be00af
:100c60006420e1000700390002003a00f1ff27008c
:100c7000f0ff2f000160a000120220001240880047
:100c8000550037006120e10003003a000b00a70087
:100c900001f823005000370001f0a10002002100fc
:100ca00093642400500007000800be0004003500d3
:100cb000b2fd2000930c24004d0007000004be008c
:100cc0000005eb000b00a6004f0dde0001f0a100b7
:100cd0000004be0032982f0023ea230064ff0700bf
:100ce0000001eb0003f023000b00a70003f8230032
:100cf00049fe0700e7fe07000000a7000a00a20067
:100d000005ff07000b00e000030032000200200096
:100d100003f023003ffe070001f0a2000006be0022
:100d2000020020009304240051ff07000801be00c8
:100d300039fe0700809fbe000c00be0022a22a00e0
:100d4000d3a723004aff07004f01be0032fe070071
:100d50000004be0001f0a10002002000039823005f
:100d6000210007000800be00190035000001be0088
:100d70003fff07000006be00b2c52900e362230062
:100d80003bff070022222b00f3942b0022fe0700da
:100d90000c01be0036ff0700e273280083c0230069
:100da0001dfe07000c01be0031ff070042aa2a0009
:100db000a3e22b0018fe07000c01be002cff070069
:100dc0000801be002aff07000801be0012fe07004e
:100dd0000a00a70001f0a2004f06be004f05be00aa
:100de0004f04be0000000600140020005100370030
:100df0000400200000003700889fbe008a9fbe00cc
:100e00008c1f78004f26dd0001ff070008ff33002c
:100e10006120e100430032006250e10041003e00e9
:100e20003e0039006420e1003c003200058255009c
:100e30000f003b000402e80038003a00800f530026
:100e4000818f5b00350034000800be0003f0a10074
:100e500001f0a60003f0a0000cf0a700eefd0700d3
:100e6000fcfe37000603430087834b000c46460018
:100e70000005530081855b00020033000a03be00b9
:100e80000c00a0000402e900f6ff3b008505780095
:100e90000602430087824b0004003a006000b8005d
:100ea00009f0a70001f0a000eafe3700000252009e
:100eb00081825a000704e000040033000603430067
:100ec00087834b008b05e900faff3700090578009e
:100ed0000604be000203be006011b80091fe0700c8
:100ee000e00f5200e08f5a000700350002003c007e
:100ef0000c08a300040032000601be0003f0a000ad
:100f00000cf0a700c4fd07000a85680001f0a100ed
:100f10000af0a70001f0a000cefe37000800be00d6
:100f2000ccfe3700100220000cf0a6001040880014
:100f3000ccfe3700889fbe008a9fbe00841f7800c9
:100f4000b3fe07004f00780011003300f0ff2f00c0
:100f5000838f6c0006003b00040565000a00a700b3
:100f60000800370009f0a600100020000800370034
:100f7000820f5400838f5c000300390010002000b2
:100f800001003e000000200009f0a7000000ea0078
:100f90004f05be004f04be000000e0000000060048
:020000040000fa
:100fa0000200fa008a00070060ff23001008880092
:100fb00000032800200888000000eb00000f7800e4
:100fc00001088000a0fc2100808f500002003e003c
:100fd000e4e2a80001003700e4e2a9002004800058
:100fe000680060000000e000280032005116800018
:100ff000000420000080600000f0a7000000ea006c
:101000000000e9004f00de00004078000080fb0097
:10101000610060004600dd00611680000160a100f3
:1010200001007000601688008460a90019e2a90020
:101030001602a8000000eb00000f78000200370045
:10104000000000001e0fe800100320009e00780042
:10105000808f5000faff3400500720009010880065
:101060000000eb00000f78000200370000000000d5
:101070001e0fe800f01820009e007800808f5000be
:10108000faff34001642a8000000000002088000a9
:10109000d0cc2c000010b8004408de007400b90069
:1010a00000007800000051000000e0000a003a0053
:1010b000004080000000e8000040880001408000ff
:1010c0008016200000017800110009008200d8007d
:1010d0008000fd000040880000408000cf80de00de
:1010e0000dfe0700325c2f00830c240060fe070019
:1010f00002002000433b2400a4fd070090fe0700ef
:101100000200200003f8230043fd07000200200036
:101110000340240056fe0700defd070000007800b3
:1011200010228800a6ff37000000fa00113a800064
:10113000f00b200000816000600420007105200099
:101140002374200080497800814978008249780022
:101150000136800000fc2f00008060003000b300ea
:1011600000368800103a8000000178000260a0007c
:10117000600420007105200023742000804978005d
:101180008149780082497800e204a900c802a900d8
:101190002002a90020a2a90001118000f0cf2f0099
:1011a000008060000011880021e2a8007006200085
:1011b0004011880011118000f0f32f0000806000c2
:1011c000101188002342a8000080fa0000000600e9
:1011d0000000fa00ea84a900e882a900eaa4a900b4
:1011e000e8a2a900d0092000a010880017e2a800fa
:1011f0000080fa00000006000200fa00004f7800ac
:10120000000000001111800000202000008060001c
:101210000000e000fbff3a001e00fb0020118800e8
:101220000080fa00000006000200fa00000f7800bb
:10123000040037001e007800104078001e0fe80000
:10124000edff07001e007800104078000004e00069
:10125000f8ff3a00d0c0b300e7ff07000080fa00b3
:10126000000006000000fa00217420006204200043
:1012700073052000824878008348780042c7a9009f
:101280000080fa00000006000000fa00217420002f
:1012900062042000730520008248780083487800ab
:0c12a00042c7a8000080fa000000060011
:020000040000fa
:1012ac00000800000200000080000000020800009e
:0c12bc00020000008000000000000000a4
:020000040000fa
:020000040002f8
:04aff000ff830000db
:020000040000fa
:020000040002f8
:04aff800bff900009d
:020000040000fa
:020000040002f8
:04affc003f7d000095
:00000001FF
